{
	"enums-contract.sol": {
		"enumsLearn": {
			"abi": [
				{
					"inputs": [],
					"name": "getChoice",
					"outputs": [
						{
							"internalType": "enum enumsLearn.shirtColor",
							"name": "",
							"type": "uint8"
						}
					],
					"stateMutability": "view",
					"type": "function"
				},
				{
					"inputs": [],
					"name": "getDefaultChoice",
					"outputs": [
						{
							"internalType": "uint256",
							"name": "",
							"type": "uint256"
						}
					],
					"stateMutability": "view",
					"type": "function"
				},
				{
					"inputs": [],
					"name": "setSmall",
					"outputs": [],
					"stateMutability": "nonpayable",
					"type": "function"
				},
				{
					"inputs": [],
					"name": "setWhite",
					"outputs": [],
					"stateMutability": "nonpayable",
					"type": "function"
				}
			],
			"devdoc": {
				"kind": "dev",
				"methods": {},
				"version": 1
			},
			"evm": {
				"assembly": "    /* \"enums-contract.sol\":323:1215  contract enumsLearn {... */\n  mstore(0x40, 0x80)\n  callvalue\n  dup1\n  iszero\n  tag_1\n  jumpi\n  0x00\n  dup1\n  revert\ntag_1:\n  pop\n  dataSize(sub_0)\n  dup1\n  dataOffset(sub_0)\n  0x00\n  codecopy\n  0x00\n  return\nstop\n\nsub_0: assembly {\n        /* \"enums-contract.sol\":323:1215  contract enumsLearn {... */\n      mstore(0x40, 0x80)\n      callvalue\n      dup1\n      iszero\n      tag_1\n      jumpi\n      0x00\n      dup1\n      revert\n    tag_1:\n      pop\n      jumpi(tag_2, lt(calldatasize, 0x04))\n      shr(0xe0, calldataload(0x00))\n      dup1\n      0x67cb61b6\n      eq\n      tag_3\n      jumpi\n      dup1\n      0x7e10e9d1\n      eq\n      tag_4\n      jumpi\n      dup1\n      0x843f7258\n      eq\n      tag_5\n      jumpi\n      dup1\n      0x91ff2c86\n      eq\n      tag_6\n      jumpi\n    tag_2:\n      0x00\n      dup1\n      revert\n        /* \"enums-contract.sol\":1019:1102  function getChoice() public view returns(shirtColor) {... */\n    tag_3:\n      tag_7\n      tag_8\n      jump\t// in\n    tag_7:\n      mload(0x40)\n      tag_9\n      swap2\n      swap1\n      tag_10\n      jump\t// in\n    tag_9:\n      mload(0x40)\n      dup1\n      swap2\n      sub\n      swap1\n      return\n        /* \"enums-contract.sol\":940:1009  function setWhite() public {... */\n    tag_4:\n      tag_11\n      tag_12\n      jump\t// in\n    tag_11:\n      stop\n        /* \"enums-contract.sol\":1116:1213  function getDefaultChoice() public view returns(uint) {... */\n    tag_5:\n      tag_13\n      tag_14\n      jump\t// in\n    tag_13:\n      mload(0x40)\n      tag_15\n      swap2\n      swap1\n      tag_16\n      jump\t// in\n    tag_15:\n      mload(0x40)\n      dup1\n      swap2\n      sub\n      swap1\n      return\n        /* \"enums-contract.sol\":504:580  function setSmall() public {... */\n    tag_6:\n      tag_17\n      tag_18\n      jump\t// in\n    tag_17:\n      stop\n        /* \"enums-contract.sol\":1019:1102  function getChoice() public view returns(shirtColor) {... */\n    tag_8:\n        /* \"enums-contract.sol\":1060:1070  shirtColor */\n      0x00\n        /* \"enums-contract.sol\":1089:1095  choice */\n      dup1\n      0x00\n      swap1\n      sload\n      swap1\n      0x0100\n      exp\n      swap1\n      div\n      0xff\n      and\n        /* \"enums-contract.sol\":1082:1095  return choice */\n      swap1\n      pop\n        /* \"enums-contract.sol\":1019:1102  function getChoice() public view returns(shirtColor) {... */\n      swap1\n      jump\t// out\n        /* \"enums-contract.sol\":940:1009  function setWhite() public {... */\n    tag_12:\n        /* \"enums-contract.sol\":986:1002  shirtColor.WHITE */\n      0x01\n        /* \"enums-contract.sol\":977:983  choice */\n      0x00\n      dup1\n        /* \"enums-contract.sol\":977:1002  choice = shirtColor.WHITE */\n      0x0100\n      exp\n      dup2\n      sload\n      dup2\n      0xff\n      mul\n      not\n      and\n      swap1\n      dup4\n      0x02\n      dup2\n      gt\n      iszero\n      tag_21\n      jumpi\n      tag_22\n      tag_23\n      jump\t// in\n    tag_22:\n    tag_21:\n      mul\n      or\n      swap1\n      sstore\n      pop\n        /* \"enums-contract.sol\":940:1009  function setWhite() public {... */\n      jump\t// out\n        /* \"enums-contract.sol\":1116:1213  function getDefaultChoice() public view returns(uint) {... */\n    tag_14:\n        /* \"enums-contract.sol\":1164:1168  uint */\n      0x00\n        /* \"enums-contract.sol\":914:929  shirtColor.BLUE */\n      0x02\n        /* \"enums-contract.sol\":1187:1206  uint(defaultChoice) */\n      dup1\n      dup2\n      gt\n      iszero\n      tag_25\n      jumpi\n      tag_26\n      tag_23\n      jump\t// in\n    tag_26:\n    tag_25:\n        /* \"enums-contract.sol\":1180:1206  return uint(defaultChoice) */\n      swap1\n      pop\n        /* \"enums-contract.sol\":1116:1213  function getDefaultChoice() public view returns(uint) {... */\n      swap1\n      jump\t// out\n        /* \"enums-contract.sol\":504:580  function setSmall() public {... */\n    tag_18:\n      jump\t// out\n        /* \"#utility.yul\":7:160   */\n    tag_29:\n        /* \"#utility.yul\":105:153   */\n      tag_31\n        /* \"#utility.yul\":147:152   */\n      dup2\n        /* \"#utility.yul\":105:153   */\n      tag_32\n      jump\t// in\n    tag_31:\n        /* \"#utility.yul\":100:103   */\n      dup3\n        /* \"#utility.yul\":93:154   */\n      mstore\n        /* \"#utility.yul\":7:160   */\n      pop\n      pop\n      jump\t// out\n        /* \"#utility.yul\":166:284   */\n    tag_33:\n        /* \"#utility.yul\":253:277   */\n      tag_35\n        /* \"#utility.yul\":271:276   */\n      dup2\n        /* \"#utility.yul\":253:277   */\n      tag_36\n      jump\t// in\n    tag_35:\n        /* \"#utility.yul\":248:251   */\n      dup3\n        /* \"#utility.yul\":241:278   */\n      mstore\n        /* \"#utility.yul\":166:284   */\n      pop\n      pop\n      jump\t// out\n        /* \"#utility.yul\":290:534   */\n    tag_10:\n        /* \"#utility.yul\":394:398   */\n      0x00\n        /* \"#utility.yul\":432:434   */\n      0x20\n        /* \"#utility.yul\":421:430   */\n      dup3\n        /* \"#utility.yul\":417:435   */\n      add\n        /* \"#utility.yul\":409:435   */\n      swap1\n      pop\n        /* \"#utility.yul\":445:527   */\n      tag_38\n        /* \"#utility.yul\":524:525   */\n      0x00\n        /* \"#utility.yul\":513:522   */\n      dup4\n        /* \"#utility.yul\":509:526   */\n      add\n        /* \"#utility.yul\":500:506   */\n      dup5\n        /* \"#utility.yul\":445:527   */\n      tag_29\n      jump\t// in\n    tag_38:\n        /* \"#utility.yul\":290:534   */\n      swap3\n      swap2\n      pop\n      pop\n      jump\t// out\n        /* \"#utility.yul\":540:762   */\n    tag_16:\n        /* \"#utility.yul\":633:637   */\n      0x00\n        /* \"#utility.yul\":671:673   */\n      0x20\n        /* \"#utility.yul\":660:669   */\n      dup3\n        /* \"#utility.yul\":656:674   */\n      add\n        /* \"#utility.yul\":648:674   */\n      swap1\n      pop\n        /* \"#utility.yul\":684:755   */\n      tag_40\n        /* \"#utility.yul\":752:753   */\n      0x00\n        /* \"#utility.yul\":741:750   */\n      dup4\n        /* \"#utility.yul\":737:754   */\n      add\n        /* \"#utility.yul\":728:734   */\n      dup5\n        /* \"#utility.yul\":684:755   */\n      tag_33\n      jump\t// in\n    tag_40:\n        /* \"#utility.yul\":540:762   */\n      swap3\n      swap2\n      pop\n      pop\n      jump\t// out\n        /* \"#utility.yul\":768:905   */\n    tag_41:\n        /* \"#utility.yul\":818:825   */\n      0x00\n        /* \"#utility.yul\":847:852   */\n      dup2\n        /* \"#utility.yul\":836:852   */\n      swap1\n      pop\n        /* \"#utility.yul\":853:899   */\n      tag_43\n        /* \"#utility.yul\":893:898   */\n      dup3\n        /* \"#utility.yul\":853:899   */\n      tag_44\n      jump\t// in\n    tag_43:\n        /* \"#utility.yul\":768:905   */\n      swap2\n      swap1\n      pop\n      jump\t// out\n        /* \"#utility.yul\":911:988   */\n    tag_36:\n        /* \"#utility.yul\":948:955   */\n      0x00\n        /* \"#utility.yul\":977:982   */\n      dup2\n        /* \"#utility.yul\":966:982   */\n      swap1\n      pop\n        /* \"#utility.yul\":911:988   */\n      swap2\n      swap1\n      pop\n      jump\t// out\n        /* \"#utility.yul\":994:1131   */\n    tag_32:\n        /* \"#utility.yul\":1055:1064   */\n      0x00\n        /* \"#utility.yul\":1088:1125   */\n      tag_47\n        /* \"#utility.yul\":1119:1124   */\n      dup3\n        /* \"#utility.yul\":1088:1125   */\n      tag_41\n      jump\t// in\n    tag_47:\n        /* \"#utility.yul\":1075:1125   */\n      swap1\n      pop\n        /* \"#utility.yul\":994:1131   */\n      swap2\n      swap1\n      pop\n      jump\t// out\n        /* \"#utility.yul\":1137:1317   */\n    tag_23:\n        /* \"#utility.yul\":1185:1262   */\n      0x4e487b7100000000000000000000000000000000000000000000000000000000\n        /* \"#utility.yul\":1182:1183   */\n      0x00\n        /* \"#utility.yul\":1175:1263   */\n      mstore\n        /* \"#utility.yul\":1282:1286   */\n      0x21\n        /* \"#utility.yul\":1279:1280   */\n      0x04\n        /* \"#utility.yul\":1272:1287   */\n      mstore\n        /* \"#utility.yul\":1306:1310   */\n      0x24\n        /* \"#utility.yul\":1303:1304   */\n      0x00\n        /* \"#utility.yul\":1296:1311   */\n      revert\n        /* \"#utility.yul\":1323:1441   */\n    tag_44:\n        /* \"#utility.yul\":1409:1410   */\n      0x03\n        /* \"#utility.yul\":1402:1407   */\n      dup2\n        /* \"#utility.yul\":1399:1411   */\n      lt\n        /* \"#utility.yul\":1389:1435   */\n      tag_50\n      jumpi\n        /* \"#utility.yul\":1415:1433   */\n      tag_51\n      tag_23\n      jump\t// in\n    tag_51:\n        /* \"#utility.yul\":1389:1435   */\n    tag_50:\n        /* \"#utility.yul\":1323:1441   */\n      pop\n      jump\t// out\n\n    auxdata: 0xa264697066735822122042ab10e8883d1a4a5e19c1f1dffc683c712bc41c2c1756ad096457f2651d86aa64736f6c63430008070033\n}\n",
				"bytecode": {
					"linkReferences": {},
					"object": "608060405234801561001057600080fd5b506101fb806100206000396000f3fe608060405234801561001057600080fd5b506004361061004c5760003560e01c806367cb61b6146100515780637e10e9d11461006f578063843f72581461007957806391ff2c8614610097575b600080fd5b6100596100a1565b604051610066919061011d565b60405180910390f35b6100776100b7565b005b6100816100e3565b60405161008e9190610138565b60405180910390f35b61009f6100fd565b005b60008060009054906101000a900460ff16905090565b60016000806101000a81548160ff021916908360028111156100dc576100db610182565b5b0217905550565b60006002808111156100f8576100f7610182565b5b905090565b565b61010881610170565b82525050565b61011781610166565b82525050565b600060208201905061013260008301846100ff565b92915050565b600060208201905061014d600083018461010e565b92915050565b6000819050610161826101b1565b919050565b6000819050919050565b600061017b82610153565b9050919050565b7f4e487b7100000000000000000000000000000000000000000000000000000000600052602160045260246000fd5b600381106101c2576101c1610182565b5b5056fea264697066735822122042ab10e8883d1a4a5e19c1f1dffc683c712bc41c2c1756ad096457f2651d86aa64736f6c63430008070033",
					"opcodes": "PUSH1 0x80 PUSH1 0x40 MSTORE CALLVALUE DUP1 ISZERO PUSH2 0x10 JUMPI PUSH1 0x0 DUP1 REVERT JUMPDEST POP PUSH2 0x1FB DUP1 PUSH2 0x20 PUSH1 0x0 CODECOPY PUSH1 0x0 RETURN INVALID PUSH1 0x80 PUSH1 0x40 MSTORE CALLVALUE DUP1 ISZERO PUSH2 0x10 JUMPI PUSH1 0x0 DUP1 REVERT JUMPDEST POP PUSH1 0x4 CALLDATASIZE LT PUSH2 0x4C JUMPI PUSH1 0x0 CALLDATALOAD PUSH1 0xE0 SHR DUP1 PUSH4 0x67CB61B6 EQ PUSH2 0x51 JUMPI DUP1 PUSH4 0x7E10E9D1 EQ PUSH2 0x6F JUMPI DUP1 PUSH4 0x843F7258 EQ PUSH2 0x79 JUMPI DUP1 PUSH4 0x91FF2C86 EQ PUSH2 0x97 JUMPI JUMPDEST PUSH1 0x0 DUP1 REVERT JUMPDEST PUSH2 0x59 PUSH2 0xA1 JUMP JUMPDEST PUSH1 0x40 MLOAD PUSH2 0x66 SWAP2 SWAP1 PUSH2 0x11D JUMP JUMPDEST PUSH1 0x40 MLOAD DUP1 SWAP2 SUB SWAP1 RETURN JUMPDEST PUSH2 0x77 PUSH2 0xB7 JUMP JUMPDEST STOP JUMPDEST PUSH2 0x81 PUSH2 0xE3 JUMP JUMPDEST PUSH1 0x40 MLOAD PUSH2 0x8E SWAP2 SWAP1 PUSH2 0x138 JUMP JUMPDEST PUSH1 0x40 MLOAD DUP1 SWAP2 SUB SWAP1 RETURN JUMPDEST PUSH2 0x9F PUSH2 0xFD JUMP JUMPDEST STOP JUMPDEST PUSH1 0x0 DUP1 PUSH1 0x0 SWAP1 SLOAD SWAP1 PUSH2 0x100 EXP SWAP1 DIV PUSH1 0xFF AND SWAP1 POP SWAP1 JUMP JUMPDEST PUSH1 0x1 PUSH1 0x0 DUP1 PUSH2 0x100 EXP DUP2 SLOAD DUP2 PUSH1 0xFF MUL NOT AND SWAP1 DUP4 PUSH1 0x2 DUP2 GT ISZERO PUSH2 0xDC JUMPI PUSH2 0xDB PUSH2 0x182 JUMP JUMPDEST JUMPDEST MUL OR SWAP1 SSTORE POP JUMP JUMPDEST PUSH1 0x0 PUSH1 0x2 DUP1 DUP2 GT ISZERO PUSH2 0xF8 JUMPI PUSH2 0xF7 PUSH2 0x182 JUMP JUMPDEST JUMPDEST SWAP1 POP SWAP1 JUMP JUMPDEST JUMP JUMPDEST PUSH2 0x108 DUP2 PUSH2 0x170 JUMP JUMPDEST DUP3 MSTORE POP POP JUMP JUMPDEST PUSH2 0x117 DUP2 PUSH2 0x166 JUMP JUMPDEST DUP3 MSTORE POP POP JUMP JUMPDEST PUSH1 0x0 PUSH1 0x20 DUP3 ADD SWAP1 POP PUSH2 0x132 PUSH1 0x0 DUP4 ADD DUP5 PUSH2 0xFF JUMP JUMPDEST SWAP3 SWAP2 POP POP JUMP JUMPDEST PUSH1 0x0 PUSH1 0x20 DUP3 ADD SWAP1 POP PUSH2 0x14D PUSH1 0x0 DUP4 ADD DUP5 PUSH2 0x10E JUMP JUMPDEST SWAP3 SWAP2 POP POP JUMP JUMPDEST PUSH1 0x0 DUP2 SWAP1 POP PUSH2 0x161 DUP3 PUSH2 0x1B1 JUMP JUMPDEST SWAP2 SWAP1 POP JUMP JUMPDEST PUSH1 0x0 DUP2 SWAP1 POP SWAP2 SWAP1 POP JUMP JUMPDEST PUSH1 0x0 PUSH2 0x17B DUP3 PUSH2 0x153 JUMP JUMPDEST SWAP1 POP SWAP2 SWAP1 POP JUMP JUMPDEST PUSH32 0x4E487B7100000000000000000000000000000000000000000000000000000000 PUSH1 0x0 MSTORE PUSH1 0x21 PUSH1 0x4 MSTORE PUSH1 0x24 PUSH1 0x0 REVERT JUMPDEST PUSH1 0x3 DUP2 LT PUSH2 0x1C2 JUMPI PUSH2 0x1C1 PUSH2 0x182 JUMP JUMPDEST JUMPDEST POP JUMP INVALID LOG2 PUSH5 0x6970667358 0x22 SLT KECCAK256 TIMESTAMP 0xAB LT 0xE8 DUP9 RETURNDATASIZE BYTE 0x4A 0x5E NOT 0xC1 CALL 0xDF 0xFC PUSH9 0x3C712BC41C2C1756AD MULMOD PUSH5 0x57F2651D86 0xAA PUSH5 0x736F6C6343 STOP ADDMOD SMOD STOP CALLER "
				},
				"gasEstimates": {
					"creation": {
						"codeDepositCost": "101400",
						"executionCost": "147",
						"totalCost": "101547"
					},
					"external": {
						"getChoice()": "2546",
						"getDefaultChoice()": "385",
						"setSmall()": "188",
						"setWhite()": "24431"
					}
				},
				"methodIdentifiers": {
					"getChoice()": "67cb61b6",
					"getDefaultChoice()": "843f7258",
					"setSmall()": "91ff2c86",
					"setWhite()": "7e10e9d1"
				}
			},
			"storageLayout": {
				"storage": [
					{
						"astId": 16,
						"contract": "enums-contract.sol:enumsLearn",
						"label": "choice",
						"offset": 0,
						"slot": "0",
						"type": "t_enum(shirtColor)13"
					}
				],
				"types": {
					"t_enum(shirtColor)13": {
						"encoding": "inplace",
						"label": "enum enumsLearn.shirtColor",
						"numberOfBytes": "1"
					}
				}
			},
			"userdoc": {
				"kind": "user",
				"methods": {},
				"version": 1
			}
		}
	}
}